:1000000018C03CC03BC03AC09DC438C037C036C0E1
:1000100035C034C009C732C031C030C02FC0010262
:1000200004081020010101010101003600380037E9
:10003000E50211241FBECFE5D2E0DEBFCDBF10E048
:10004000A0E6B0E0EEE8F0E102C005900D92AA361D
:10005000B107D9F720E0AAE6B0E001C01D92A339AC
:10006000B207E1F710E0C9E1D0E003C02197FE013B
:10007000D8D7C831D107D1F73ED707C8C1CFCF9362
:10008000DF9360E070E084E790E0AFD260E08091C1
:1000900066001AD5C4E6D0E061E0888115D561E03C
:1000A00088814CD568EE73E080E090E0DF91CF91DD
:1000B000C2C48091660072D59093730080937200E1
:1000C000892B09F008956091700070917100613979
:1000D0007105A4F484E790E0A4D262E170E080E0CE
:1000E00090E0A9D481E0E5D28091700090917100F8
:1000F00003969093710080937000E5CF8091660025
:100100004DD59093730080937200019789F480918C
:100110006A0090916B00019690936B0080936A0047
:10012000059731F48FE090E090936F0080936E001C
:10013000089586E490E09093710080937000609140
:100140007000709171006139710584F484E790E06A
:1001500068D262E170E080E090E06DD481E0A9D2E5
:1001600080917000909171000196E5CF089581E92A
:1001700090E0909371008093700060917000709196
:100180007100663471058CF084E790E04AD262E138
:1001900070E080E090E04FD481E08BD28ADF8091E4
:1001A0007000909171000197E4CF089586E490E08B
:1001B0009093710080937000609170007091710055
:1001C0006139710584F484E790E02BD262E170E03C
:1001D00080E090E030D481E06CD28091700090910A
:1001E00071000496E5CF089586E490E09093710045
:1001F0008093700060917000709171006139710599
:1002000084F484E790E00DD262E170E080E090E059
:1002100012D481E04ED280917000909171000896C6
:10022000E5CF089581E990E090937100809370008C
:100230006091700070917100663471058CF084E7F4
:1002400090E0EFD162E170E080E090E0F4D381E0F3
:1002500030D22FDF80917000909171000897E4CF29
:10026000089566E470E084E790E0DBD162E170E03D
:1002700080E090E0E0D381E01CD266E470E084E7A7
:1002800090E0CFD162E170E080E090E0D4D381E0F3
:1002900010C286E490E090937100809370006091AA
:1002A0007000709171006436710584F484E790E009
:1002B000B8D162E170E080E090E0BDD381E0F9D197
:1002C00080917000909171000196E5CF68EE73E027
:1002D00080E090E0B0D386E490E09093710080934A
:1002E000700060917000709171006139710584F443
:1002F00084E790E096D162E170E080E090E09BD3EB
:1003000081E0D7D180917000909171000196E5CF86
:10031000089586E490E0909371008093700060915E
:100320007000709171006436710584F484E790E088
:1003300078D162E170E080E090E07DD381E0B9D1D6
:1003400080917000909171000196E5CF68EE73E0A6
:1003500080E090E070D386E490E090937100809309
:10036000700060917000709171006738710584F4BD
:1003700084E790E056D162E170E080E090E05BD3EA
:1003800081E097D180917000909171000696E5CF41
:1003900064EF71E080E090E04ED386E490E09093CB
:1003A00071008093700060917000709171006139EC
:1003B000710584F484E790E034D162E170E080E07C
:1003C00090E039D381E075D18091700090917100F7
:1003D0000196E5CF089586E490E0909371008093B4
:1003E000700060917000709171006837710584F43D
:1003F00084E790E016D162E170E080E090E01BD3EA
:1004000081E057D180917000909171000196E5CF05
:1004100068EE73E080E090E00ED366E470E084E77D
:1004200090E0FFD062E170E080E090E004D381E0F2
:1004300040D166E470E084E790E0F3D062E170E0E0
:1004400080E090E0F8D281E034D168EE73E080E0A3
:1004500090E0F1D261E970E084E790E0E2D062E1FF
:1004600070E080E090E0E7D281E023D161E970E0C4
:1004700084E790E0D6D062E170E080E090E0DBD2EB
:1004800081E017C186E490E0909371008093700042
:1004900060917000709171006436710584F484E796
:1004A00090E0BFD062E170E080E090E0C4D281E0F3
:1004B00000D180917000909171000196E5CF20E00D
:1004C00030E0A90160EB74E08091640092D368EBA6
:1004D0007BE080E090E0AFD2809164007BD484CE5A
:1004E00080916C0090916D0001968730910529F004
:1004F00090936D0080936C0004C010926D00109278
:100500006C00809166004AD39093730080937200D0
:10051000892B09F059C080916E0090916F0001966F
:1005200090936F0080936E00059714F402DE1FDE37
:1005300080916E0090916F000597059710F436DE5C
:1005400016DE80916E0090916F000A97059718F45F
:100550004BDE68DE86DE80916E0090916F000F9713
:100560009CF180916C0090916D00892B09F491DED3
:1005700080916C0090916D00019709F4CADE809122
:100580006C0090916D00029709F425DF80916C005A
:1005900090916D00039709F427DE80916C00909193
:1005A0006D00049709F402DE80916C0090916D005B
:1005B000059709F4BEDD80916C0090916D0006975F
:1005C00009F460DF2FDE4DCE089584E790E000C08F
:1005D000FC0111828FEF82831482138282E2858371
:1005E00086E98683108617820895CF93DF93EC0106
:1005F000862F69839FEF9A831C821B822091810042
:100600003091820038872F83D0938200C09381007D
:1006100060E094D261E0898157D281E0DF91CF918F
:100620000895CF92DF92EF92FF92CF93DF93EC0188
:100630009B0177FD06C0653B71052CF024EB30E093
:1006400002C020E030E02A838D81C82ED12CE12C1D
:10065000F12CFE2CED2CDC2CCC246E8170E0681B80
:100660007109CB01770FAA0BBB0B6627782F892F57
:100670009A2F032E000C440B550B7FD4B901CA01ED
:1006800024EB30E040E050E05CD4C701B601620FDB
:10069000731F841F951F20E430E040E050E051D4E8
:1006A0003C832B83DF91CF91FF90EF90DF90CF9031
:1006B00008953F924F925F926F927F928F929F9296
:1006C000AF92BF92CF92DF92EF92FF920F931F9360
:1006D000CF93DF9300D0CDB7DEB7182F4DB65EB6FF
:1006E00078D1111116C000917D0010917E002091EB
:1006F0007F00309180006B017C01C01AD10AE20AB0
:10070000F30A97018601043111052105310508F42A
:10071000F0C060937D0070937E0080937F00909383
:100720008000A0918100B0918200FD0110E030971F
:1007300049F083819481892B09F01F5F0780F08540
:10074000E02DF5CF111102C081E0D4C0812E912C93
:10075000C401880F991FEDB6FEB6E81AF90A0FB664
:10076000F894FEBE0FBEEDBE2DB73EB72F5F3F4FD4
:10077000690120E01097A9F013968D919C91149730
:10078000892B51F0822F90E0880F991F8C0D9D1DB1
:10079000FC01B183A0832F5F17960D90BC91A02D13
:1007A000E9CFF601A081B1811C927601D60190E0DB
:1007B00081E08117F9F012964D915C911397FA013F
:1007C00010822D913D9163817481F901438154819F
:1007D0006417750768F44D915C91119711963C93DD
:1007E0002E939D0122503109F9015183408391E0FC
:1007F0008F5FDFCF9111D9CFD60121E031E02117F2
:10080000C9F012964D915C911397FA0183819481FE
:10081000FD01608171811296FB01638174818617ED
:10082000970721F0861B970B069710F4FA01308387
:100830002F5FE5CFF89400E0D601ED91FD916D01B9
:1008400061E081817BD10F5F0113F6CF78940FB502
:10085000CC24C394D12CA12CB12C602E712C332428
:1008600033948FEF8C0D811708F06ECFFA82E982F6
:10087000F701A081B18113968D919C911497860DFB
:10088000971DAC0144505109602F0FB5061708F4AD
:10089000B394F701A081B1816C91202F30E06111F8
:1008A0000AC0B501620F731F4617570720F4F8946A
:1008B000A081B1813C92602F2A0D3B1D82179307C6
:1008C00020F7F2E0EF0EF11CA981BA81ED91FC91C5
:1008D00060E0818133D1C814D90434F4D701ED919B
:1008E000FC918081811101C07894BFEFCB1ADB0AA3
:1008F000B8CF80E00FB6F8945EBE0FBE4DBE0F902D
:100900000F90DF91CF911F910F91FF90EF90DF90AB
:10091000CF90BF90AF909F908F907F906F905F909F
:100920004F903F90089583B7887F83BF8AB58C7FAF
:1009300081608ABD83B7877F83BF83B7887F8360E9
:1009400083BF089578941F920F920FB60F921124CF
:100950002F933F938F939F93AF93BF938091840086
:1009600090918500A0918600B0918700309183001E
:100970002CE7230F2D3728F02FEF230F0196A11D11
:10098000B11D209383008093840090938500A093F1
:100990008600B09387008091880090918900A09193
:1009A0008A00B0918B000196A11DB11D8093880033
:1009B00090938900A0938A00B0938B00BF91AF9170
:1009C0009F918F913F912F910F900FBE0F901F908D
:1009D00018952FB7F89460918400709185008091EC
:1009E0008600909187002FBF08953FB7F8948091BB
:1009F000880090918900A0918A00B0918B002FB55A
:100A000008B602FE05C02F3F19F00196A11DB11DC9
:100A10003FBFBA2FA92F982F8827820F911DA11DA4
:100A2000B11DBC01CD0142E0660F771F881F991FE1
:100A30004A95D1F70895CF92DF92EF92FF92CF932C
:100A4000DF936B017C01D1DFEB01C114D104E10420
:100A5000F10471F0CADF6C1B7D0B683E7340A8F394
:100A600081E0C81AD108E108F108C851DC4FEDCF88
:100A7000DF91CF91FF90EF90DF90CF90089513BE5C
:100A80001ABC12BE19BC18BC89B7857E89BF88B74D
:100A90008A6188BF48CF789480B7806880BF80B76C
:100AA000806480BF8CB580648CBD8FEF8DBD80B7B6
:100AB000807F876080BF89B7846089BF34DF86B15B
:100AC000876086B9379A0895CF93DF9390E0FC0151
:100AD000E25EFF4F2491FC01EC5DFF4F849188237F
:100AE00051F190E0FC01E25DFF4FE491CE2FD0E0A8
:100AF000FC01E45DFF4F8491611107C08FB7F8944A
:100B00009881E22FE095E92314C0623071F4A82F98
:100B1000B0E09FB7F8943881822F80958323888333
:100B2000EC91E22BEC939FBF06C08FB7F894E8815D
:100B3000E22BE8838FBFDF91CF910895282F30E01B
:100B4000F901E25EFF4F9491F901EC5DFF4FE491F2
:100B5000EE2319F1811103C08AB58F7304C081306F
:100B600021F48AB58F7C8ABD05C0843019F48CB518
:100B70008F7C8CBDF0E0E45DFF4FA491B0E08FB7B7
:100B8000611106C0F8942C91E92FE095E22303C08F
:100B9000F894EC91E92BEC938FBF0895282F30E067
:100BA000F901E25EFF4F9491F901EC5DFF4FE49192
:100BB000EE23E1F0811103C08AB58F7304C0813048
:100BC00021F48AB58F7C8ABD05C0843019F48CB5B8
:100BD0008F7C8CBDF0E0E65DFF4FA491B0E0EC911E
:100BE000E92381E090E021F480E0089580E090E046
:100BF0000895CF92DF92EF92FF920F931F93CF93BE
:100C0000DF93182FEB0169017A01809168008F3F13
:100C100009F040C013BE1ABC12BE19BC18BC89B77B
:100C2000857E89BF88B78A6188BF8AB58C7F8260DC
:100C30008ABD83B7877F83BF123078F410928E000D
:100C400010928D0010928C008AB5111103C08F7321
:100C500080641AC08F7C806117C0212F30E0F901B9
:100C6000EC5DFF4FE491F0E0E45DFF4F449150E014
:100C700050938E0040938D00F901E25EFF4FE491A6
:100C8000E0938C008AB58F708ABD61E0812F1CDFF4
:100C90001093680000916800011393C083B7887FA8
:100CA00083BF12BE209709F47EC0C032D10598F0F0
:100CB000CA37D10590F0C83E81E0D80790F0CB3319
:100CC0008FE0D80790F0C63D89E7D80790F011E093
:100CD00021E030E011C0C0E2D0E015E020E034E0D7
:100CE0000BC014E020E031E007C013E020E430E066
:100CF00003C012E028E030E0CE01A0E0B0E0BC018B
:100D0000CD01660F771F881F991F40E050E035D155
:100D1000B22FA32FF42FE52F60E47AE887EF91E05C
:100D20002B2F3A2F4F2F5E2F0CD1DA01C9010196DC
:100D3000A11DB11DB595A795979587952FEF280F04
:100D400029BDC114D104E104F104C1F0BE01660F54
:100D5000771F80E090E0A701960111D1B901CA0187
:100D600028EE33E040E050E0CAD020938F0030936B
:100D7000900040939100509392000DC08FEF9FEF31
:100D8000DC0180938F0090939000A0939100B0932A
:100D90009200023018F089B7806189BF83B7887FDD
:100DA000182B13BF0EC089B7857E89BF60E0812FE5
:100DB000DF91CF911F910F91FF90EF90DF90CF9037
:100DC000BDCEDF91CF911F910F91FF90EF90DF90FB
:100DD000CF900895909168009F3F29F1981711F0E6
:100DE0008F3F09F589B7857E89BF83B7887F83BF29
:100DF00046DEE0918D00F0918E00309769F0909181
:100E00008C008081282F30E0892F90E0809590958C
:100E100082239323808304C060E0809168008EDE8B
:100E20008FEF80936800089578941F920F920FB609
:100E30000F9211242F933F934F935F936F937F9360
:100E40008F939F93AF93BF93EF93FF9380918F0006
:100E500090919000A0919100B0919200892B8A2BE3
:100E60008B2B61F180918F0090919000A091910067
:100E7000B0919200181619061A061B0614F58091F7
:100E80008F0090919000A0919100B09192000197F5
:100E9000A109B10980938F0090939000A0939100D5
:100EA000B093920080918F0090919000A09191005A
:100EB000B0919200892B8A2B8B2B19F48FEF8ADF4C
:100EC00009C080918C00E0918D00F0918E0090819E
:100ED00089278083FF91EF91BF91AF919F918F916F
:100EE0007F916F915F914F913F912F910F900FBE26
:100EF0000F901F901895CFDDC2D8F2DAFECFA1E295
:100F00001A2EAA1BBB1BFD010DC0AA1FBB1FEE1F83
:100F1000FF1FA217B307E407F50720F0A21BB30BCE
:100F2000E40BF50B661F771F881F991F1A9469F74A
:100F300060957095809590959B01AC01BD01CF01A6
:100F40000895052E97FB16F400940FD057FD05D099
:100F5000D6DF07FC02D046F408C050954095309586
:100F600021953F4F4F4F5F4F089590958095709515
:100F700061957F4F8F4F9F4F089568940013E894B9
:100F8000A0E0B0E0E5ECF7E01DC0EFEFE7F95901B4
:100F90006A015E23550FEE08FE2C87019B01AC0110
:100FA0009E23990F660B762FCB0141D0CDB7DEB7CC
:100FB000EAE024C02F923F924F925F926F927F920D
:100FC0008F929F92AF92BF92CF92DF92EF92FF9259
:100FD0000F931F93CF93DF93CDB7DEB7CA1BDB0B05
:100FE0000FB6F894DEBF0FBECDBF09942A883988AA
:100FF00048885F846E847D848C849B84AA84B984B1
:10100000C884DF80EE80FD800C811B81AA81B981BC
:10101000CE0FD11D0FB6F894DEBF0FBECDBFED01D0
:101020000895EE0FFF1F0590F491E02D0994DF93D2
:10103000CF939F92A0E49A2E0024D001E001F0010A
:1010400016950795F794E794D794C794B794A79407
:1010500048F41068A20FB31FC41FD51FE61FF71F67
:10106000081E191E220F331F441F551F661F771FAE
:10107000881F991F9A9421F79D01AE01BF01C001FD
:0E10800011249F90CF91DF910895F894FFCF37
:0A108E000100000004000300FF0051
:00000001FF
